:100000000C9456000C94E80B0C94050C0C94EE0B1D
:100010000C94050C0C94050C0C94050C0C94D6094E
:100020000C94050C0C94050C0C94050C0C94050C0C
:100030000C94050C0C94050C0C94050C0C94050CFC
:100040000C94050C0C94050C0C94050C0C94050CEC
:100050000C94050C0C945B080C94050C0C94050C8A
:100060000C94050C0C94050C0100013800181801C3
:1000700038015680015601920018500192019E806D
:10008000019E01A200188C01A201AE8001AE01BD4B
:1000900000189001BD01BE8001BE01BF00189F0184
:1000A000BF01C18001C101C20018A00011241FBE00
:1000B000CFEFD8E0DEBFCDBFE8E6F0E040E017C00C
:1000C000B591A59135912591059107FD0CC09591AC
:1000D0008591EF01F92FE82F05900D92A217B30734
:1000E000D9F7FE0104C01D92A217B307E1F7EB3A5E
:1000F000F40731F70E945A030C94CD0BF894FFCF0C
:100100008F929F92AF92BF92CF92DF92EF92FF9227
:100110000F931F93CF93DF930E94930B6B017C018E
:100120008091BE018823D9F11092BF018091A60170
:100130009091A701A091A801B091A901A7019601F2
:10014000281B390B4A0B5B0BDA01C901883E93402F
:10015000A105B10508F4A1C28091BA01823059F419
:100160001092BA011092B7011092B4011092B1012D
:100170001092AE010BC082E08093BA018093B70168
:100180008093B4018093B1018093AE01C092A60127
:10019000D092A701E092A801F092A9017EC28091BD
:1001A000BA01823009F460C18091B701823009F44C
:1001B0005BC18091B401823009F456C18091B101D4
:1001C000823009F451C18091AE01823009F44CC1F2
:1001D0000E94930B2091BF012230C1F118F421300D
:1001E00041F0ACC0233009F459C0243009F47EC07A
:1001F000A5C02091BA01213009F036C12091B70184
:10020000213009F031C100919E0110919F01209190
:10021000A0013091A1018090830190908401A09071
:100220008501B0908601AB01BC01481959096A09E2
:100230007B09D901C801880F991FAA1FBB1F481746
:1002400059076A077B0708F08AC00EC12091B401E4
:10025000213009F009C180909E0190909F01A090EB
:10026000A001B090A101009174011091750120913D
:10027000760130917701AB01BC01401B510B620B41
:10028000730B880C991CAA1CBB1C81E048155905EE
:100290006A057B0508F0FAC180E0F8C12091B10140
:1002A000213009F0E1C080909E0190909F01A090C4
:1002B000A001B090A101009165011091660120910B
:1002C000670130916801AB01BC01401B510B620B0F
:1002D000730B880C991CAA1CBB1C81E0481559059E
:1002E0006A057B0508F0D2C180E0D0C12091AE0143
:1002F000213009F0B9C080909E0190909F01A0909C
:10030000A001B090A10100915601109157012091D8
:10031000580130915901AB01BC01401B510B620BDC
:10032000730B880C991CAA1CBB1C81E0481559054D
:100330006A057B0508F0AAC180E0A8C1213079F0E8
:1003400080E00E941C0A81110AC084E00E941C0AFD
:10035000811105C082E00E941C0A8823F9F080E028
:100360000E941C0A882329F08091BF01843009F083
:1003700085C184E00E941C0A882329F08091BF0176
:10038000833009F07DC182E00E941C0A882331F08D
:100390008091BF01823009F075C17BC1C091BF015E
:1003A000C13009F461C081E08093BF010E94600AFE
:1003B0008091BF018230E1F018F4813039F054C0EF
:1003C000833091F1843009F43FC04EC0AAEBB1E014
:1003D00083E08C93E7EBF1E08083C3E8D1E0CC824B
:1003E000DD82EE82FF821E8612961C9212824DC022
:1003F000E4EBF1E083E08083A4E7B1E01496CD92D2
:10040000DD92ED92FC9217971E961C921282C130DB
:1004100029F48091BA01833009F49EC0EAEBF1E03F
:1004200083E08083128298C0E1EBF1E083E0808377
:10043000A5E6B1E01496CD92DD92ED92FC9217976D
:100440001E961C921282D5C0EEEAF1E083E0808312
:10045000A6E5B1E01496CD92DD92ED92FC9217974D
:100460001E961C92128201C18091BF01823009F454
:1004700073C020F4813009F010C107C0833009F443
:10048000B8C0843009F009C1F0C082E00E941C0AA3
:1004900081110AC084E00E941C0A811105C00E94DB
:1004A0001C0A882309F4F9C0A701960163E871E0EA
:1004B0008AEB91E00E942807A701960163E871E0AA
:1004C00087EB91E00E94280784E00E941C0A8111BA
:1004D00005C00E941C0A882309F4DFC020919E01F8
:1004E00030919F014091A0015091A101E3E8F1E01A
:1004F00084819581A681B78146015701881A990A9E
:10050000AA0ABB0AA485B0E00E94C20B8616970611
:10051000A806B90608F4C1C08091BA01833059F425
:1005200082E08093BA01C0928B01D0928C01E0925C
:100530008D01F0928E018091B701833009F0ADC03A
:1005400082E08093B701C0928B01D0928C01E0923F
:100550008D01F0928E01A1C0A701960164E771E0C0
:1005600084EB91E00E9428078091BA01833041F02A
:10057000A701960163E871E08AEB91E00E942807E9
:1005800084E00E941C0A811105C00E941C0A882375
:1005900009F483C08091B401833009F07EC02091BA
:1005A0009E0130919F014091A0015091A101E4E78B
:1005B000F1E084819581A681B78146015701881AAF
:1005C000990AAA0ABB0AA485B0E00E94C20B86164B
:1005D0009706A806B90608F460C082E08093B401CB
:1005E000C0927C01D0927D01E0927E01F0927F0169
:1005F00054C0A701960165E671E081EB91E00E948D
:10060000280780E00E941C0A882309F446C08091D4
:10061000B101833009F041C020919E0130919F01CA
:100620004091A0015091A101E5E6F1E0848195811E
:10063000A681B78146015701881A990AAA0ABB0AFE
:10064000A485B0E00E94C20B86169706A806B906DC
:1006500020F182E08093B101C0926D01D0926E01D1
:10066000E0926F01F092700118C0A701960166E553
:1006700071E08EEA91E00E9428070FC084E003C079
:1006800083E001C082E0C091BF018ECE811158CEBF
:10069000EBCEC091BF0181E087CEDF91CF911F915A
:1006A0000F91FF90EF90DF90CF90BF90AF909F9011
:0406B0008F9008958A
:1006B400CF93DF93CDB7DEB728970FB6F894DEBF9C
:1006C4000FBECDBF0E945E090E94FE0A0E94B70BB6
:1006D4000E94000C0E9488090E949F0B0E9402083D
:1006E40081E08093BE011092BF010E94930B60933E
:1006F40096017093970180939801909399010E94B9
:10070400E10B1092BA011092B7011092B401109249
:10071400B1011092AE0178940E94930B603D774032
:1007240081059105C8F30E94D80B812C912C5401AA
:100734001D821E821F821886412C512C320119827F
:100744001A821B821C820F2EFAEB2F2EF1E03F2E11
:10075400F02D02C0460157010E94930B6B017C01EE
:100764008091BD0181110E9498088091BE01882367
:1007740009F470C04B9909C0C0929601D0929701B8
:10078400E0929801F092990165C04B9B63C08091FF
:10079400960190919701A0919801B0919901A701B8
:1007A4009601281B390B4A0B5B0BDA01C901803116
:1007B4009742A105B10508F44DC01092BE0141E075
:1007C4004093BF010E94E10B23E0F1012083E7EB9A
:1007D400F1E0208321E0E4EBF1E02083E1EBF1E0C0
:1007E4002083EEEAF1E02083C0928701D092880151
:1007F400E0928901F0928A01E3E8F1E0C082D182BB
:10080400E282F382E4E7F1E0C082D182E282F38201
:10081400E5E6F1E0C082D182E282F382E6E5F1E02E
:10082400C082D182E282F382F10111821092B80176
:100834001092B5011092B2011092AF01128210927F
:10084400B9012093B6012093B3012093B00181E054
:100854000E94600AD701C6012D813E814F815885CF
:10086400821B930BA40BB50B0A97A105B10530F0BD
:100874000E949808CD82DE82EF82F886D701C601F5
:1008840029813A814B815C81821B930BA40BB50BAC
:1008940084369105A105B10530F00E948000C9821B
:1008A400DA82EB82FC82D701C60184199509A60974
:1008B400B7094497A105B10558F00E949F07182F66
:1008C400862F972F0E94870B1F7018B926013701B6
:1008D4008091920190919301A0919401B09195011E
:1008E400A7019601281B390B4A0B5B0B283C3105E9
:1008F4004105510550F00E94C704C0929201D09264
:100904009301E0929401F092950180919E0190915F
:100914009F01A091A001B091A101B701A6014819BE
:1009240059096A097B09481759076A077B0708F4BC
:1009340013CF80919A0190919B01A0919C01B09159
:100944009D010196A11DB11D80939A0190939B0175
:10095400A0939C01B0939D0180919A0190919B0179
:10096400A0919C01B0919D01803A9648A140B105A7
:1009740008F4F0CE10929A0110929B0110929C01FF
:0A09840010929D0146015701E7CED5
:10098E008F929F92AF92BF92CF92DF92EF92FF9291
:10099E000F931F93CF93DF93CDB7DEB7A2970FB60A
:1009AE00F894DEBF0FBECDBF8091C001882309F43D
:1009BE0023C164C08091BE01811102C08FE501C0C8
:1009CE0088E58E8380E28F83888789878A878B87E5
:1009DE0060919A0170919B0180919C0190919D0173
:1009EE0020EA36E841E050E00E943E0A4B015C01ED
:1009FE0020E137E240E050E00E943E0A205D2C8765
:100A0E00C501B40128EE33E040E050E00E943E0AFA
:100A1E000F2EFAE0CF2ED12CE12CF12CF02DCA01A5
:100A2E00B901A70196010E943E0A605D6D87C5015E
:100A3E00B40124E630E040E050E00E943E0ACA01D4
:100A4E00B901A70196010E943E0A605D6E87C5013D
:100A5E00B401A70196010E943E0A162FCA01B901E0
:100A6E00A70196010E943E0A605D6F87105D188B8C
:100A7E00198A8091BF0181112AC07BC0EAEAF1E098
:100A8E00428150E0638170E0FE01319680E090E09B
:100A9E00AFE59A01082E02C0359527950A94E2F724
:100AAE0020FF0EC09B01082E02C0359527950A9493
:100ABE00E2F720FD02C028E501C02A2F208301C0E5
:100ACE00A083019631968530910519F773CF823048
:100ADE0049F118F4813031F054C0833091F18430F3
:100AEE00E1F14FC00091BA01802F0E94360B182FF2
:100AFE00033061F48091B701833009F049C080E280
:100B0E00E0E2F1E0A8E2B1E090E24FC08091B701DF
:100B1E00833009F444C080E2E0E2F1E0A8E2B1E003
:100B2E0090E243C08091BA010E94360B182F80913B
:100B3E00B4010E94360BECE2F1E0A8E2B1E097E5D9
:100B4E0034C08091B1010E94360B182F80E2E0E292
:100B5E00F1E0A0E3B1E090E228C08091AE010E94E6
:100B6E00360B182F80E2E0E2F1E0A4E3B1E090E270
:100B7E001CC080E210E2E0E2F1E0A4E2B1E090E21B
:100B8E0014C080E210E2E0E2F1E0DF0190E20DC07D
:100B9E0080E2E0E2F1E0A8E2B1E097E506C080E293
:100BAE00E0E2F1E0A8E2B1E095E49A8B9C919B8B98
:100BBE0011969C9111979C8B12969C919D8B1E8BDE
:100BCE0090819F8B9181988F9281998F8A8F1B8EA6
:100BDE0060E080E00E94AB0BCE0101960E94D00A2D
:100BEE0061E080E00E94AB0BCE0142960E94D00ADB
:100BFE0061E081E10E94AB0BA2960FB6F894DEBFC6
:100C0E000FBECDBFDF91CF911F910F91FF90EF904F
:0E0C1E00DF90CF90BF90AF909F908F90089581
:100C2C002F923F924F925F926F927F928F929F92F0
:100C3C00AF92BF92CF92DF92EF92FF920F931F93DE
:100C4C00CF93DF930E94930B2B013C0108E311E03F
:100C5C00D1E0E12CF12C882483940F2EFAEB2F2E6B
:100C6C00F1E03F2EF02D06C08FEFE81AF80ADF5F97
:100C7C000B5F1F4FCE2DC230C9F028F4EE2049F087
:100C8C00C13069F02AC0C430F1F0B0F0C530F9F0D1
:100C9C0024C082E10E94690B882581701FC082E10B
:100CAC000E94690B82958170882518C083E10E948F
:100CBC00690B8825817012C083E10E94690B8295B3
:100CCC00817088250BC083B18825817007C089B1DC
:100CDC0086FB882780F9882501C080E09E2CF801CE
:100CEC009081981709F44FC04181528163817481BE
:100CFC0063015201A41AB50AC60AD70AB601A501A6
:100D0C00423351056105710508F473C0808341823B
:100D1C00528263827482882309F46BC0C23091F0D2
:100D2C0028F4CC2341F0C13049F015C0C33069F030
:100D3C00C43071F010C08092AF015FC0D101119628
:100D4C008C925BC08092B50158C08092B80155C09E
:100D5C008092B20152C08091AD0190E0092C02C08A
:100D6C00959587950A94E2F780FD43C081E090E069
:100D7C0002C0880F991F9A94E2F79091AC01892BCD
:100D8C008093AC0136C0F801418252826382748236
:100D9C0091112FC0C23091F028F4CC2341F0C13016
:100DAC0049F015C0C33069F0C43071F010C0109216
:100DBC00AF012FC0D10111961C922BC01092B5011E
:100DCC0028C01092B80125C01092B20122C08C2FFD
:100DDC000E941C0A81110DC081E090E002C0880FB6
:100DEC00991F9A94E2F780959091AC018923809396
:100DFC00AC01D63008F438CF12C08091AD0190E030
:100E0C00092C02C0959587950A94E2F780FFAECF26
:100E1C002BCF8C2F0E941C0A8823F1F225CFDF9157
:100E2C00CF911F910F91FF90EF90DF90CF90BF90DB
:100E3C00AF909F908F907F906F905F904F903F906E
:040E4C002F90089546
:100E50008F929F92AF92BF92CF92DF92EF92FF92CA
:100E60000F931F93CF93DF938C01EB0169017A01FC
:100E7000FC018081823099F1833009F053C02091C8
:100E80009E0130919F014091A0015091A1018C8160
:100E90009D81AE81BF8146015701881A990AAA0A2D
:100EA000BB0AC501B4010E943E0A2E879C85291702
:100EB000C8F19D85291740F082E0F8018083C8863B
:100EC000D986EA86FB862EC0F801818181112AC06D
:100ED00082E08083C886D986EA86FB8623C080911B
:100EE0009E0190919F01A091A001B091A101488520
:100EF00059856A857B8546015701841A950AA60A99
:100F0000B70A880F991FAA1FBB1F88169906AA0641
:100F1000BB0640F081E0F80180838283C882D982D9
:100F2000EA82FB82DF91CF911F910F91FF90EF90AA
:0E0F3000DF90CF90BF90AF909F908F9008956C
:100F3E000F931F938091AE01823039F0833041F0D0
:100F4E00813049F428E030E008C024E030E005C0EC
:100F5E0022E030E002C020E030E08091BA01823021
:100F6E0031F0833031F0813029F4206803C02064E1
:100F7E0001C020628091B401823031F0833031F0B3
:100F8E00813029F4386003C0346001C03260809132
:100F9E00B701823031F0833031F0813029F430687E
:100FAE0003C0306401C030628091B101823039F0EB
:100FBE00833041F0813049F468E070E008C064E0AD
:100FCE0070E005C062E070E002C060E070E0CB014E
:100FDE00A0E0B0E0BC0155274427C901A0E0B0E075
:100FEE008C019D01042B152B262B372BC901B80123
:060FFE001F910F91089500
:10100400CF93DF9300D0CDB7DEB71A8219828981DE
:101014009A818031974250F489819A8101969A830A
:10102400898389819A8180319742B0F38091C1018B
:101034000E94480B8F3F99F48FE38093C1010E9473
:10104400480B8F3F61F480E28093C1010E94480BFA
:101054008F3F29F490E285B1892785B9FCCF80912F
:10106400C1010E94480B81111FC081E08093C0011F
:101074008091C1010E94B70A60E08091C1010E9481
:101084007E0A4FE060E071E08091C1010E94CE08C9
:1010940060E48091C1010E947E0A4FE060E171E04A
:1010A4008091C1010E94CE080F900F90DF91CF91E3
:0210B40008959D
:1010B6000F920FB60F921F9211242F933F934F93C7
:1010C6005F936F937F938F939F93AF93BF93EF93AA
:1010D600FF932091780030917900A6EBB3E00E944F
:1010E600780B2FEF33E040E050E00E943E0ADA0131
:1010F600C901C296A11DB11D80939E0190939F01C7
:10110600A093A001B093A101FF91EF91BF91AF9180
:101116009F918F917F916F915F914F913F912F9109
:0A1126001F900F900FBE0F90189558
:101130000F931F930E9416064B9912C08091BE0117
:10114000811129C081E08093BE010E94930B6093BE
:1011500096017093970180939801909399011BC019
:101160008091BE018823B9F00E94930B00919601F3
:10117000109197012091980130919901DC01CB01E8
:10118000801B910BA20BB30B81319742A105B105D6
:0C11900010F01092BE011F910F91089505
:10119C00EF92FF920F931F93CF93DF93D82F7B0186
:1011AC00C42F0E94590B892BE1F060E08D2F0E9417
:1011BC00E90A892BC1F08FEF8C0FCC2371F0E7017A
:1011CC00082F10E00F5F1F4F0E0D1F1D69E0899156
:1011DC000E949B0A0C171D07C9F70E94010980E0A9
:1011EC0003C08FEF01C08FEFDF91CF911F910F9153
:0611FC00FF90EF90089542
:10120200CF93DF9300D000D0CDB7DEB784E98093CF
:10121200BC0019821A821B821C8289819A81AB814D
:10122200BC8184369105A105B105A4F489819A8116
:10123200AB81BC810196A11DB11D89839A83AB83C9
:10124200BC8389819A81AB81BC8184369105A105D9
:10125200B10564F30F900F900F900F90DF91CF9133
:021262000895ED
:10126400CF93C82F0E94590B892B31F060E08C2F4B
:101274000E94E90A892B21F40E9401098FEF1AC008
:1012840080E00E94240B80E30E94F90980E30E941D
:10129400F90980E30E94F90980E20E94F90968E0F3
:1012A4008FE00E949B0A68E081E00E949B0A0E94F2
:0812B400010980E0CF910895CB
:1012BC00219A2098289A87B18E6087B988B1817F4E
:1012CC0088B98AB1806F8AB953988BB18F708BB9FA
:1012DC005B9AEBE6F0E0808181608083E8E6F0E0E9
:1012EC0080818160808382E08093690081E08DBB86
:1012FC008CBB80E480937C008FEE80937A001092FC
:04130C007B000895C5
:1013100080E58CBD1DBC6AE68AE00E94120B61E18B
:1013200080E00E94120B61E181E00E94120B60E0FC
:1013300088E00E94120B60E089E00E94120B61E1DC
:101340008CE00E94120B61E18DE00E94120B61E1C2
:1013500084E00E94120B61E185E00E94120B089567
:10136000863018F5482F50E021E030E0B90102C086
:10137000660F771F8A95E2F7CB01EAEAF1E0238155
:10138000262B2383FA01EE0FFF1FEE0FFF1F4E0FD8
:101390005F1FFA01E85CFE4F2081211106C0EAEAD6
:0C13A000F1E080959281892382830895FA
:1013AC001F921FB61F9211248F939F93AF93BF93DD
:1013BC008091A2019091A301A091A401B091A501EB
:1013CC000196A11DB11D8093A2019093A301A0933E
:1013DC00A401B093A501BF91AF919F918F911F90E4
:0613EC001FBE1F901895C2
:1013F200CF93C82F84608093BB0084E88093BC00A5
:101402000E94FA0B8091B900887F883241F4CB7F29
:10141200C093BB0084E88093BC000E94FA0B9091B9
:10142200B900987F21E030E0983211F020E030E0FE
:06143200C901CF910895ED
:101438008630F0F42091AC0130E0082E02C03595DA
:1014480027950A94E2F7A9014170552720FF0EC09D
:101458002091AD0130E0A90102C0559547958A95C4
:10146800E2F7CA0121E080FD20E0422F842F089591
:0414780080E0089573
:10147C00A1E21A2EAA1BBB1BFD010DC0AA1FBB1F8C
:10148C00EE1FFF1FA217B307E407F50720F0A21BFE
:10149C00B30BE40BF50B661F771F881F991F1A946B
:1014AC0069F760957095809590959B01AC01BD0195
:0414BC00CF010895BF
:1014C000823081F018F4813031F00895833071F06A
:1014D000843081F0089581E00E94B00983E00E9489
:1014E000B009089582E00E94B009089584E00E9446
:0C14F000B009089580E00E94B009089542
:1014FC00CF93DF93C82FD62F0E94590B892B79F0ED
:10150C0060E08C2F0E94E90A892B59F068E08D2F3E
:10151C0080680E949B0A0E94010980E003C08FEF43
:0A152C0001C08FEFDF91CF91089509
:10153600CF93DF93D82FC62FCF70807F8C2B0E943E
:10154600F909009771F020E1D29FC00111248C2B7C
:101556000E94F90931E020E0892B09F430E0832F5D
:08156600922FDF91CF9108954F
:10156E00CF93C82F0E94590B892B71F060E08C2FFE
:10157E000E94E90A892B51F068E081E00E949B0AE3
:10158E000E94010980E003C08FEF01C08FEFCF9161
:02159E000895AE
:1015A000DC018091C001882399F08C91882351F04F
:1015B000FD01319640E04F5F9191992321F0403138
:1015C000D1F701C040E0BD018091C1010E94CE0869
:0215D00008957C
:1015D200880F6170682B6093BB0084E88093BC0025
:1015E2000E94FA0B9091B900987F21E030E0983187
:0A15F20011F020E030E0C901089577
:1015FC00E1EBF0E010821092B2008CE78093B30024
:10160C0087E087BB82E0809370001092B6008093D5
:08161C00B00085E08083089511
:10162400CF93DF93D82FC62F2A9880E40E94F40B1F
:101634008D2F0E94F40B8C2F0E94F40B2A9ADF91B9
:04164400CF910895A5
:101648008093BB0084E88093BC000E94FA0B9091C1
:10165800B900987F21E030E0983211F020E030E0C6
:04166800C901089517
:10166C00813041F048F0823019F0833049F006C0E7
:10167C0089E5089582E508958FE5089580E208953F
:04168C0087E4089552
:10169000CF93DF93D82F0E943209C82F811104C045
:1016A0008D2F0E94B70A01C0CFEF8C2FDF91CF9111
:0216B00008959B
:1016B20084EA8093BC000E94FA0B9091B900987F53
:1016C20021E030E0983011F020E030E0C9010895C7
:1016D200CF93C82F2A9881E40E94F40B8C2F0E948A
:0E16E200F40B80E00E94F40B2A9ACF91089539
:1016F000A29FB001B39FC001A39F700D811D112453
:0E170000911DB29F700D811D1124911D089541
:10170E00CF93C92F682F84E10E94120B6C2F85E1B5
:08171E000E94120BCF91089507
:101726002FB7F8946091A2017091A3018091A40152
:081736009091A5012FBF089559
:10173E0087B18F7087B988B1806388B981EC809347
:08174E00B8001092B9000895E3
:101756009091C001992339F06111805C682F8091C6
:08176600C1010E947E0A0895F2
:10176E00219A299880E48093800088E080938100FC
:06177E00109282000895A4
:101784000E94780BA59F900DB49F900DA49F800D8F
:06179400911D11240895CF
:10179A00EC010E940A0C0E94090CCE010E940B0C5B
:0617AA00CE010E94070CB5
:1017B0008091C001882321F08091C1010E94B70A65
:0217C00008958A
:0E17C200EAEAF1E01282138210821182089589
:0C17D0008F9381E08093BD018F911895EC
:0C17DC008F9381E08093BD018F911895E0
:0C17E8008EBD0DB407FEFDCF8EB5089538
:0C17F400ECEBF0E080818823ECF7089516
:0A18000084B18C6284B92498089525
:04180A000C9400003A
:04180E000E947E00B6
:02181200089537
:02181400089535
:02181600089533
:101818005472616666696320436F6E74726F6C0000
:10182800496E697469616C697A696E672E2E2E003B
:1018380020202000485A4400505254005057540069
:081848005253540044535400B4
:0F18500000000000000000000000000002040083
:0F185F0000000000000000000000000002030075
:0F186E0000000000000000000000000002040065
:0F187D0000000000000000000000000004060052
:04188C00E80300006D
:0318900002000152
:031893000200014F
:031896000200014C
:0318990002000149
:03189C0002000146
:01189F000147
:0118A0002720
:00000001FF
