:100000000C9456000C94BF0B0C94DC0B0C94C50B99
:100010000C94DC0B0C94DC0B0C94DC0B0C94B809EA
:100020000C94DC0B0C94DC0B0C94DC0B0C94DC0BB4
:100030000C94DC0B0C94DC0B0C94DC0B0C94DC0BA4
:100040000C94DC0B0C94DC0B0C94DC0B0C94DC0B94
:100050000C94DC0B0C943B080C94DC0B0C94DC0B28
:100060000C94DC0B0C94DC0B010001380017C6016A
:1000700038015680015601920017FE0192019E80C0
:10008000019E01A200183A01A201AE8001AE01BD9D
:1000900000183E01BD01BE8001BE01BF00184D0128
:1000A000BF01C18001C101C200184E0011241FBE52
:1000B000CFEFD8E0DEBFCDBFE8E6F0E040E017C00C
:1000C000B591A59135912591059107FD0CC09591AC
:1000D0008591EF01F92FE82F05900D92A217B30734
:1000E000D9F7FE0104C01D92A217B307E1F7EB3A5E
:1000F000F40731F70E945C030C94A40BF894FFCF33
:100100008F929F92AF92BF92CF92DF92EF92FF9227
:100110000F931F93CF93DF930E94690B6B017C01B8
:100120008091BE018823D9F11092BF018091A60170
:100130009091A701A091A801B091A901A7019601F2
:10014000281B390B4A0B5B0BDA01C901883E93402F
:10015000A105B10508F4A3C28091BA01823059F417
:100160001092BA011092B7011092B4011092B1012D
:100170001092AE010BC082E08093BA018093B70168
:100180008093B4018093B1018093AE01C092A60127
:10019000D092A701E092A801F092A90180C28091BB
:1001A000BA01823009F45BC18091B701823009F451
:1001B00056C18091B401823009F451C18091B101DE
:1001C000823009F44CC18091AE01823009F447C1FC
:1001D0000E94690BC091BF01C230C1F118F4C13057
:1001E00041F0B0C0C33009F45BC0C43009F482C030
:1001F000A9C02091BA01213009F031C12091B70185
:10020000213009F02CC100919E0110919F01209195
:10021000A0013091A1018090830190908401A09071
:100220008501B0908601AB01BC01481959096A09E2
:100230007B09D901C801880F991FAA1FBB1F481746
:1002400059076A077B0708F08CC009C12091B401E7
:10025000213009F004C180909E0190909F01A090F0
:10026000A001B090A101009174011091750120913D
:10027000760130917701AB01BC01401B510B620B41
:10028000730BD501C401880F991FAA1FBB1F21E062
:10029000481759076A077B0708F0F0C120E0EEC154
:1002A0002091B101213009F0DAC080909E01909038
:1002B0009F01A090A001B090A10100916501109153
:1002C00066012091670130916801AB01BC01401BC0
:1002D000510B620B730BD501C401880F991FAA1F24
:1002E000BB1F21E0481759076A077B0708F0C6C102
:1002F00020E0C4C12091AE01213009F0B0C080904F
:100300009E0190909F01A090A001B090A10100914A
:100310005601109157012091580130915901DC018B
:10032000CB01801B910BA20BB30B880C991CAA1C50
:10033000BB1C21E088159905AA05BB0508F09EC1E4
:1003400020E09CC1C13069F08091AF0181110FC0E4
:100350008091B201811195C18091B50181110BC0CD
:100360007FC18091AF01882309F48EC17BC1C43065
:1003700009F07AC189C18091B501882329F0C23082
:1003800009F074C181E004C0C13009F468C081E0A3
:100390008093BF010E94420A8091BF01823001F127
:1003A00018F4813039F05BC08330B9F1843009F43E
:1003B00045C055C0AAEBB1E083E08C93E7EBF1E0D8
:1003C0008083C3E8D1E0CC82DD82EE82FF821E868C
:1003D00012961C921297128211961C92118250C092
:1003E000E4EBF1E083E08083A4E7B1E01496CD92E2
:1003F000DD92ED92FC9217971E961C92128211824A
:10040000C13029F48091BA01833009F49DC0EAEB30
:10041000F1E083E08083128297C0E1EBF1E083E0BA
:100420008083A5E6B1E01496CD92DD92ED92FC9228
:1004300017971E961C9212821182CEC0EEEAF1E04E
:1004400083E08083A6E5B1E01496CD92DD92ED9233
:10045000FC9217971E961C9212821182F8C080910E
:10046000BF01823009F470C020F4813009F017C157
:1004700007C0833009F4B0C0843009F010C1E7C070
:100480008091B501811109C08091B201811105C02F
:100490008091AF01882309F402C1A701960163E8A6
:1004A00071E08AEB91E00E94B206A701960163E831
:1004B00071E087EB91E00E94B2068091B201811158
:1004C00005C08091AF01882309F4E9C020919E0105
:1004D00030919F014091A0015091A101E3E8F1E02A
:1004E00084819581A681B78146015701881A990AAE
:1004F000AA0ABB0AA485B0E00E94990B861697064B
:10050000A806B90608F4CBC08091BA01833059F42B
:1005100082E08093BA01C0928B01D0928C01E0926C
:100520008D01F0928E018091B701833009F0B7C040
:1005300082E08093B701C0928B01D0928C01E0924F
:100540008D01F0928E01ABC0A701960164E771E0C6
:1005500084EB91E00E94B206A701960163E871E086
:100560008AEB91E00E94B2068091AF01811105C033
:100570008091B201882309F492C08091B401833044
:1005800009F08DC020919E0130919F014091A00102
:100590005091A101E4E7F1E084819581A681B781C2
:1005A00046015701881A990AAA0ABB0AA485B0E035
:1005B0000E94990B86169706A806B90608F46FC024
:1005C00082E08093B401C0927C01D0927D01E092E0
:1005D0007E01F0927F0163C0A701960165E671E09C
:1005E00081EB91E00E94B2068091AF01882309F46B
:1005F00056C08091B101833009F051C020919E0115
:1006000030919F014091A0015091A101E5E6F1E0F8
:1006100084819581A681B78146015701881A990A7C
:10062000AA0ABB0AA485B0E00E94990B8616970619
:10063000A806B906A0F182E08093B101C0926D01D5
:10064000D0926E01E0926F01F092700128C0A70174
:10065000960166E571E08EEA91E00E94B2061FC045
:1006600081E096CE84E094CE84E092CE82E090CE7B
:1006700083E08ECE83E08CCE82E08ACE211164CEE0
:10068000EECEC330A9F706C08091B201882309F4E9
:1006900072CEF0CF8091B5018111EECF75CEDF9192
:1006A000CF911F910F91FF90EF90DF90CF90BF906F
:0806B000AF909F908F90089518
:1006B800CF93DF93CDB7DEB728970FB6F894DEBF98
:1006C8000FBECDBF0E9440090E94E00A0E94D70BCE
:1006D8000E946A090E94750B0E948C0781E0809332
:1006E800BE011092BF010E94690B6093960170933E
:1006F800970180939801909399010E94B80B1092EA
:10070800BA011092B7011092B4011092B10110927F
:10071800AE0178940E94690B603D77408105910590
:10072800C8F30E94AF0B812C912C54011D821E82AC
:100738001F821886412C512C320119821A821B8281
:100748001C820F2EFAEB2F2EF1E03F2EF02D0E9487
:10075800690B6B017C01DC01CB012D813E814F814E
:100768005885821B930BA40BB50B0A97A105B105FD
:1007780030F00E947808CD82DE82EF82F886D701B9
:10078800C60129813A814B815C81821B930BA40BA2
:10079800B50B84369105A105B10530F00E948000A3
:1007A800C982DA82EB82FC82D701C60184199509D5
:1007B800A609B7094497A105B10558F00E94290771
:1007C800182F862F972F0E94810B1F7018B92601AA
:1007D80037018091920190919301A0919401B09179
:1007E8009501A7019601281B390B4A0B5B0B283C86
:1007F80031054105510550F00E94C004C092920194
:10080800D0929301E0929401F092950180919E011B
:1008180090919F01A091A001B091A101B701A601FB
:10082800481959096A097B09481759076A077B0754
:1008380068F180919A0190919B01A0919C01B091DF
:100848009D010196A11DB11D80939A0190939B0172
:10085800A0939C01B0939D0180919A0190919B0176
:10086800A0919C01B0919D01803A9648A140B105A4
:1008780058F010929A0110929B0110929C011092CC
:100888009D014601570102C0460157018091BE01F2
:10089800882309F45CCF4B9909C0C0929601D09285
:1008A8009701E0929801F092990151CF4B9B4FCF5D
:1008B8008091960190919701A0919801B09199012A
:1008C800A7019601281B390B4A0B5B0BDA01C901FA
:1008D80080319742A105B10508F439CF1092BE01C5
:1008E80041E04093BF010E94B80B23E0F10120834F
:1008F800E7EBF1E0208321E0E4EBF1E02083E1EB9A
:10090800F1E02083EEEAF1E02083C0928701D092E3
:100918008801E0928901F0928A01E3E8F1E0C0825F
:10092800D182E282F382E4E7F1E0C082D182E282FE
:10093800F382E5E6F1E0C082D182E282F382E6E565
:10094800F1E0C082D182E282F382F1011182109239
:10095800B8011092B5011092B2011092AF01128243
:100968001092B9012093B6012093B3012093B001EE
:0809780081E00E94420AEBCE6F
:100980008F929F92AF92BF92CF92DF92EF92FF929F
:100990000F931F93CF93DF93CDB7DEB7A2970FB618
:1009A000F894DEBF0FBECDBF8091C001882309F44B
:1009B00023C164C08091BE01811102C08FE501C0D6
:1009C00088E58E8380E28F83888789878A878B87F3
:1009D00060919A0170919B0180919C0190919D0181
:1009E00020EA36E841E050E00E94200A4B015C0119
:1009F00020E137E240E050E00E94200A205D2C8791
:100A0000C501B40128EE33E040E050E00E94200A26
:100A10000F2EFAE0CF2ED12CE12CF12CF02DCA01B3
:100A2000B901A70196010E94200A605D6D87C5018A
:100A3000B40124E630E040E050E00E94200ACA0100
:100A4000B901A70196010E94200A605D6E87C50169
:100A5000B401A70196010E94200A162FCA01B9010C
:100A6000A70196010E94200A605D6F87105D188BB8
:100A7000198A8091BF0181112AC07BC0EAEAF1E0A6
:100A8000428150E0638170E0FE01319680E090E0A9
:100A9000AFE59A01082E02C0359527950A94E2F732
:100AA00020FF0EC09B01082E02C0359527950A94A1
:100AB000E2F720FD02C028E501C02A2F208301C0F3
:100AC000A083019631968530910519F773CF823056
:100AD00049F118F4813031F054C0833091F1843001
:100AE000E1F14FC00091BA01802F0E94180B182F1E
:100AF000033061F48091B701833009F049C080E28E
:100B0000E0E2F1E0A8E2B1E090E24FC08091B701ED
:100B1000833009F444C080E2E0E2F1E0A8E2B1E011
:100B200090E243C08091BA010E94180B182F809167
:100B3000B4010E94180BECE2F1E0A8E2B1E097E505
:100B400034C08091B1010E94180B182F80E2E0E2BE
:100B5000F1E0A0E3B1E090E228C08091AE010E94F4
:100B6000180B182F80E2E0E2F1E0A4E3B1E090E29C
:100B70001CC080E210E2E0E2F1E0A4E2B1E090E229
:100B800014C080E210E2E0E2F1E0DF0190E20DC08B
:100B900080E2E0E2F1E0A8E2B1E097E506C080E2A1
:100BA000E0E2F1E0A8E2B1E095E49A8B9C919B8BA6
:100BB00011969C9111979C8B12969C919D8B1E8BEC
:100BC00090819F8B9181988F9281998F8A8F1B8EB4
:100BD00060E080E00E948D0BCE0101960E94B20A77
:100BE00061E080E00E948D0BCE0142960E94B20A25
:100BF00061E081E10E948D0BA2960FB6F894DEBFF2
:100C00000FBECDBFDF91CF911F910F91FF90EF905D
:0E0C1000DF90CF90BF90AF909F908F9008958F
:100C1E002F923F924F925F926F927F928F929F92FE
:100C2E00AF92BF92CF92DF92EF92FF920F931F93EC
:100C3E00CF93DF930E94690B4B015C0108E311E037
:100C4E00C0E0D0E077247394612C0F2EFAEAEF2ED9
:100C5E00F1E0FF2EF02DCC24C394D12CC230C9F07C
:100C6E0028F4CC2349F0C13069F02AC0C430F1F029
:100C7E00B0F0C530F9F024C082E10E944B0B8725FD
:100C8E0081701FC082E10E944B0B82958170872577
:100C9E0018C083E10E944B0B8725817012C083E13F
:100CAE000E944B0B8295817087250BC083B18725DF
:100CBE00817007C089B186FB882780F9872501C01E
:100CCE00862DF8019081981739F141815281638107
:100CDE00748114012501241A350A460A570AB201F5
:100CEE00A1014233510561057105D8F080838182DF
:100CFE009282A382B4828823A1F0C6010C2E02C078
:100D0E00880F991F0A94E2F7D70112969C911297B9
:100D1E00892B12968C9305C0F80181829282A38250
:100D2E00B48221960B5F1F4FC630D10509F096CFC6
:100D3E00DF91CF911F910F91FF90EF90DF90CF90A9
:100D4E00BF90AF909F908F907F906F905F904F90DD
:060D5E003F902F90089564
:100D64008F929F92AF92BF92CF92DF92EF92FF92B7
:100D74000F931F93CF93DF938C01EB0169017A01E9
:100D8400FC018081823099F1833009F053C02091B5
:100D94009E0130919F014091A0015091A1018C814D
:100DA4009D81AE81BF8146015701881A990AAA0A1A
:100DB400BB0AC501B4010E94200A2E879C8529170D
:100DC400C8F19D85291740F082E0F8018083C88628
:100DD400D986EA86FB862EC0F801818181112AC05A
:100DE40082E08083C886D986EA86FB8623C0809108
:100DF4009E0190919F01A091A001B091A10148850D
:100E040059856A857B8546015701841A950AA60A85
:100E1400B70A880F991FAA1FBB1F88169906AA062E
:100E2400BB0640F081E0F80180838283C882D982C6
:100E3400EA82FB82DF91CF911F910F91FF90EF9097
:0E0E4400DF90CF90BF90AF909F908F90089559
:100E52000F931F938091AE01823039F0833041F0BD
:100E6200813049F428E030E008C024E030E005C0D9
:100E720022E030E002C020E030E08091BA0182300E
:100E820031F0833031F0813029F4206803C02064CE
:100E920001C020628091B401823031F0833031F0A0
:100EA200813029F4386003C0346001C0326080911F
:100EB200B701823031F0833031F0813029F430686B
:100EC20003C0306401C030628091B101823039F0D8
:100ED200833041F0813049F468E070E008C064E09A
:100EE20070E005C062E070E002C060E070E0CB013B
:100EF200A0E0B0E0BC0155274427C901A0E0B0E062
:100F02008C019D01042B152B262B372BC901B8010F
:060F12001F910F910895EC
:100F1800CF93DF9300D0CDB7DEB71A8219828981CB
:100F28009A818031974250F489819A8101969A83F7
:100F3800898389819A8180319742B0F38091C10178
:100F48000E942A0B8F3F99F48FE38093C1010E947E
:100F58002A0B8F3F61F480E28093C1010E942A0B23
:100F68008F3F29F490E285B1892785B9FCCF80911C
:100F7800C1010E942A0B81111FC081E08093C0012A
:100F88008091C1010E94990A60E08091C1010E948C
:100F9800600A4FE060E071E08091C1010E94B008F2
:100FA80060E48091C1010E94600A4FE060E171E055
:100FB8008091C1010E94B0080F900F90DF91CF91EE
:020FC80008958A
:100FCA009F92AF92BF92CF92DF92EF92FF920F93CE
:100FDA001F93CF93DF93D1E00F2EF4EBAF2EF1E006
:100FEA00BF2EF02D992493940F2EF7EBCF2EF1E01C
:100FFA00DF2EF02D0F2EFEEAEF2EF1E0FF2EF02D60
:10100A000AEB11E001C0DF5FCFEFCD0F8C2F0E94FA
:10101A00FE098823E9F0C23089F028F4CC2341F094
:10102A00C13049F015C0C33061F0C43069F010C056
:10103A00F7019182E8CFF8019182E5CFF50191821B
:10104A00E2CFF6019182DFCF81E08093B20102C044
:10105A00D530C8F2DF91CF911F910F91FF90EF9099
:0C106A00DF90CF90BF90AF909F90089552
:101076000F920FB60F921F9211242F933F934F9307
:101086005F936F937F938F939F93AF93BF93EF93EA
:10109600FF932091780030917900A6EBB3E00E948F
:1010A6005A0B2FEF33E040E050E00E94200ADA01AD
:1010B600C901C296A11DB11D80939E0190939F0107
:1010C600A093A001B093A101FF91EF91BF91AF91C1
:1010D6009F918F917F916F915F914F913F912F914A
:0A10E6001F900F900FBE0F90189599
:1010F0000F931F930E940F064B9912C08091BE015F
:10110000811129C081E08093BE010E94690B609328
:1011100096017093970180939801909399011BC059
:101120008091BE018823B9F00E94690B009196015D
:10113000109197012091980130919901DC01CB0128
:10114000801B910BA20BB30B81319742A105B10516
:1011500010F01092BE010E94E5071F910F910895B3
:10116000EF92FF920F931F93CF93DF93D82F7B01C2
:10117000C42F0E943B0B892BE1F060E08D2F0E9471
:10118000CB0A892BC1F08FEF8C0FCC2371F0E701D4
:10119000082F10E00F5F1F4F0E0D1F1D69E0899192
:1011A0000E947D0A0C171D07C9F70E94E30880E022
:1011B00003C08FEF01C08FEFDF91CF911F910F918F
:0611C000FF90EF9008957E
:1011C600CF93DF9300D000D0CDB7DEB784E980930C
:1011D600BC0019821A821B821C8289819A81AB818A
:1011E600BC8184369105A105B105A4F489819A8153
:1011F600AB81BC810196A11DB11D89839A83AB8306
:10120600BC8389819A81AB81BC8184369105A10515
:10121600B10564F30F900F900F900F90DF91CF916F
:02122600089529
:10122800CF93C82F0E943B0B892B31F060E08C2FA5
:101238000E94CB0A892B21F40E94E3088FEF1AC081
:1012480080E00E94060B80E30E94DB0980E30E9495
:10125800DB0980E30E94DB0980E20E94DB0968E089
:101268008FE00E947D0A68E081E00E947D0A0E946A
:08127800E30880E0CF91089526
:10128000219A2098289A87B18E6087B988B1817F8A
:1012900088B98AB1806F8AB953988BB18F708BB936
:1012A0005B9AEBE6F0E0808181608083E8E6F0E025
:1012B00080818160808382E08093690081E08DBBC2
:1012C0008CBB80E480937C008FEE80937A00109238
:0412D0007B00089502
:1012D40080E58CBD1DBC6AE68AE00E94F40A61E1E7
:1012E40080E00E94F40A61E181E00E94F40A60E077
:1012F40088E00E94F40A60E089E00E94F40A61E157
:101304008CE00E94F40A61E18DE00E94F40A61E13C
:1013140084E00E94F40A61E185E00E94F40A0895E1
:10132400863018F5482F50E021E030E0B90102C0C2
:10133400660F771F8A95E2F7CB01EAEAF1E0238191
:10134400262B2383FA01EE0FFF1FEE0FFF1F4E0F14
:101354005F1FFA01E85CFE4F2081211106C0EAEA12
:0C136400F1E08095928189238283089536
:101370001F921FB61F9211248F939F93AF93BF9319
:101380008091A2019091A301A091A401B091A50127
:101390000196A11DB11D8093A2019093A301A0937A
:1013A000A401B093A501BF91AF919F918F911F9020
:0613B0001FBE1F901895FE
:1013B600CF93C82F84608093BB0084E88093BC00E1
:1013C6000E94D10B8091B900887F883241F4CB7F8F
:1013D600C093BB0084E88093BC000E94D10B90911F
:1013E600B900987F21E030E0983211F020E030E03B
:0613F600C901CF9108952A
:1013FC008630F0F42091AC0130E0082E02C0359517
:10140C0027950A94E2F7A9014170552720FF0EC0D9
:10141C002091AD0130E0A90102C0559547958A9500
:10142C00E2F7CA0121E080FD20E0422F842F0895CD
:04143C0080E00895AF
:10144000A1E21A2EAA1BBB1BFD010DC0AA1FBB1FC8
:10145000EE1FFF1FA217B307E407F50720F0A21B3A
:10146000B30BE40BF50B661F771F881F991F1A94A7
:1014700069F760957095809590959B01AC01BD01D1
:04148000CF010895FB
:10148400823081F018F4813031F00895833071F0A6
:10149400843081F0089581E00E94920983E00E94E3
:1014A4009209089582E00E949209089584E00E94BE
:0C14B4009209089580E00E9492090895BA
:1014C000CF93DF93C82FD62F0E943B0B892B79F047
:1014D00060E08C2F0E94CB0A892B59F068E08D2F99
:1014E00080680E947D0A0E94E30880E003C08FEFBD
:0A14F00001C08FEFDF91CF91089546
:1014FA00CF93DF93D82FC62FCF70807F8C2B0E947B
:10150A00DB09009771F020E1D29FC00111248C2BD6
:10151A000E94DB0931E020E0892B09F430E0832FB7
:08152A00922FDF91CF9108958B
:10153200CF93C82F0E943B0B892B71F060E08C2F58
:101542000E94CB0A892B51F068E081E00E947D0A5B
:101552000E94E30880E003C08FEF01C08FEFCF91BC
:021562000895EA
:10156400DC018091C001882399F08C91882351F08B
:10157400FD01319640E04F5F9191992321F0403174
:10158400D1F701C040E0BD018091C1010E94B008C3
:021594000895B8
:10159600880F6170682B6093BB0084E88093BC0061
:1015A6000E94D10B9091B900987F21E030E09831EC
:0A15B60011F020E030E0C9010895B3
:1015C000E1EBF0E010821092B2008CE78093B30060
:1015D00087E087BB82E0809370001092B600809312
:0815E000B00085E0808308954E
:1015E800CF93DF93D82FC62F2A9880E40E94CB0B85
:1015F8008D2F0E94CB0B8C2F0E94CB0B2A9ADF9148
:04160800CF910895E1
:10160C008093BB0084E88093BC000E94D10B909126
:10161C00B900987F21E030E0983211F020E030E002
:04162C00C901089553
:10163000813041F048F0823019F0833049F006C023
:1016400089E5089582E508958FE5089580E208957B
:0416500087E408958E
:10165400CF93DF93D82F0E941409C82F811104C09F
:101664008D2F0E94990A01C0CFEF8C2FDF91CF916B
:021674000895D7
:1016760084EA8093BC000E94D10B9091B900987FB8
:1016860021E030E0983011F020E030E0C901089503
:10169600CF93C82F2A9881E40E94CB0B8C2F0E94EF
:0E16A600CB0B80E00E94CB0B2A9ACF910895C7
:1016B400A29FB001B39FC001A39F700D811D11248F
:0E16C400911DB29F700D811D1124911D08957E
:1016D2002FB7F8946091A2017091A3018091A401A7
:0816E2009091A5012FBF0895AE
:1016EA0087B18F7087B988B1806388B981EC80939C
:0816FA00B8001092B900089538
:10170200CF93C92F682F84E10E94F40A6C2F85E1E0
:081712000E94F40ACF91089532
:10171A009091C001992339F06111805C682F809102
:08172A00C1010E94600A08954C
:101732000E945A0BA59F900DB49F900DA49F800DFF
:06174200911D1124089521
:10174800EC010E94E10B0E94E00BCE010E94E20B2B
:06175800CE010E94DE0B31
:10175E008091C001882321F08091C1010E94990AD5
:02176E000895DC
:0E177000EAEAF1E012821382108211820895DB
:0C177E008F9381E08093BD018F9118953E
:0C178A008F9381E08093BD018F91189532
:0C1796008EBD0DB407FEFDCF8EB508958A
:0C17A200ECEBF0E080818823ECF7089568
:0A17AE0084B18C6284B92498089578
:0417B8000C9400008D
:0417BC000E947E0009
:0217C00008958A
:0217C200089588
:0217C400089586
:1017C6005472616666696320436F6E74726F6C0053
:1017D600496E697469616C697A696E672E2E2E008E
:1017E60020202000485A44005052540050575400BC
:0817F600525354004453540007
:0F17FE00000000000000000000000000020400D6
:0F180D00000000000000000000000000020300C7
:0F181C00000000000000000000000000020400B7
:0F182B00000000000000000000000000040600A4
:04183A00E8030000BF
:03183E00020001A4
:03184100020001A1
:031844000200019E
:031847000200019B
:03184A0002000198
:01184D000199
:01184E002772
:00000001FF
