:100000000C944C000C94F5070C940C080C94FB0712
:100010000C940C080C940C080C940C080C9413070A
:100020000C940C080C940C080C940C080C940C0800
:100030000C940C080C940C080C940C080C940C08F0
:100040000C940C080C940C080C940C080C940C08E0
:100050000C940C080C9438060C940C080C940C08A6
:100060000C940C080C940C0801000150001026019F
:10007000500164800164016800107601680170809D
:100080000170017F00107A017F0180800180018171
:10009000001089018101828011241FBECFEFD8E0BA
:1000A000DEBFCDBFE8E6F0E040E017C0B591A59116
:1000B00035912591059107FD0CC095918591EF0132
:1000C000F92FE82F05900D92A217B307D9F7FE017B
:1000D00004C01D92A217B307E1F7E839F40731F71E
:0C00E0000E9486020C94EA07F894FFCFFF
:1000EC008F929F92AF92BF92CF92DF92EF92FF923C
:1000FC000E94BB076B017C01809180018823D9F1A0
:10010C001092810180916C0190916D01A0916E0112
:10011C00B0916F01A7019601281B390B4A0B5B0BA1
:10012C00DA01C901883E9340A105B10508F4DFC18D
:10013C0080917C01823059F410927C0110927901EB
:10014C001092760110927301109270010BC082E034
:10015C0080937C0180937901809376018093730165
:10016C0080937001C0926C01D0926D01E0926E018F
:10017C00F0926F01BCC1809181018230C1F018F402
:10018C00813031F08DC08330B9F08430D1F088C02B
:10019C0090917C01933039F091E0209179012330DA
:1001AC0019F490E001C090E0911110C08AC09091B8
:1001BC00780191110BC0D0C090917501911106C0BE
:1001CC0013C190917201992309F44AC190917E0157
:1001DC00992309F465C020917B01222361F02091C1
:1001EC007101211146C120917401211144C120914A
:1001FC007701211142C1813009F463C091115BC1B7
:10020C004FC0ACE7B1E083E08C93E9E7F1E0808389
:10021C00C0924501D0924601E0924701F09248010C
:10022C0012961C9212824DC0E6E7F1E083E08083C7
:10023C00C0923601D0923701E0923801F092390128
:10024C00128280917C01833009F486C0ECE7F1E0E6
:10025C0083E08083C0924501D0924601E092470131
:10026C00F0924801128278C0E3E7F1E083E08083EA
:10027C00C0922701D0922801E0922901F0922A0124
:10028C001282B2C0E0E7F1E083E08083C0921801F3
:10029C00D0921901E0921A01F0921B011282E0C077
:1002AC0080918101823009F457C020F4813009F02B
:1002BC001EC107C0833009F497C0843009F017C100
:1002CC00CFC08FEF80934E01A701960161E471E0DE
:1002DC008CE791E00E948803A701960161E471E02C
:1002EC0089E791E00E948803809177018111C9C050
:1002FC00909174019111F6C0909171019111EDC022
:10030C0011C092E090937C01C0924901D0924A01B5
:10031C00E0924B01F0924C01811109C08091740163
:10032C00811105C080917101882309F4E0C080918E
:10033C007A018111DCC080917901833009F0D7C03A
:10034C0082E080937901C0924901D0924A01E092F7
:10035C004B01F0924C01CBC0A701960162E371E016
:10036C0086E791E00E948803A701960161E471E0A1
:10037C008CE791E00E94880380917101811105C086
:10038C0080917401882309F4B2C080917601833086
:10039C0009F0ADC020916401309165014091660176
:1003AC0050916701E2E3F1E084819581A681B781E8
:1003BC0046015701881A990AAA0ABB0AA485B0E01B
:1003CC000E94DF0786169706A806B90608F48FC0A8
:1003DC0082E080937601C0923A01D0923B01E09288
:1003EC003C01F0923D0183C0A701960163E271E0EC
:1003FC0083E791E00E94880380917101882309F4BE
:10040C0076C080917301833009F071C02091640132
:10041C00309165014091660150916701E3E2F1E092
:10042C0084819581A681B78146015701881A990A62
:10043C00AA0ABB0AA485B0E00E94DF0786169706BD
:10044C00A806B90608F453C082E080937301C092E9
:10045C002B01D0922C01E0922D01F0922E0147C07D
:10046C00A701960164E171E080E791E00E948803A6
:10047C003EC094E003C093E001C092E0891306C033
:10048C000FCF90917D01911152CF21C0909381019A
:10049C00923009F4C9CE20F4913009F001CFB1CEDD
:1004AC00933009F4E1CE943009F4ECCEF9CE81E02E
:1004BC0080938101A6CE80917B01882309F4F0CE34
:1004CC00F6CF90917C01933009F028CF1ACF909100
:1004DC007C01933009F02BCF14CF90917D0199239F
:1004EC0081F320CF90917D01992359F320CFFF9078
:1004FC00EF90DF90CF90BF90AF909F908F9008952A
:10050C000E9475060E9458070E9407080E94C706A1
:10051C000E94C70781E080938001109281010E94A4
:10052C00BB0760935C0170935D0180935E019093B7
:10053C005F0182E080937C01809379018093760146
:10054C0080937301809370017894412C512C32016B
:10055C00812C912C5401CCE7D1E00F2EF9E72F2EF2
:10056C00F1E03F2EF02D0E94BB076B017C010E9435
:10057C00E90480917F0181110E94EF06D701C60129
:10058C0088199909AA09BB0984369105A105B105F9
:10059C0020F00E94760046015701D701C60184194C
:1005AC009509A609B7090A97A105B10558F00E944B
:1005BC00D505082F862F972F0E94D3070F7008B9E7
:1005CC00260137018091580190915901A0915A014F
:1005DC00B0915B0197018601081B190B2A0B3B0B91
:1005EC00043611052105310508F440C00E94490468
:1005FC00C0925801D0925901E0925A01F0925B01DD
:10060C008091640190916501A0916601B0916701A0
:10061C0040915001509151016091520170915301E0
:10062C0097018601041B150B260B370B08171907AE
:10063C002A073B07D8F08091600190916101A0914D
:10064C006201B09163010196A11DB11D80936001FF
:10065C0090936101A0936201B0936301C092500129
:10066C00D0925101E0925201F0925301809180019D
:10067C00882309F478CF4B9909C0C0925C01D092C1
:10068C005D01E0925E01F0925F016DCF4B9B6BCFF1
:10069C0080915C0190915D01A0915E01B0915F0130
:1006AC00A7019601281B390B4A0B5B0BDA01C90118
:1006BC00883B9B40A105B10508F455CF10928001F1
:1006CC0041E04093810153E05883F1015083E6E708
:1006DC00F1E04083E3E7F1E04083E0E7F1E04083C1
:1006EC00C0924501D0924601E0924701F092480138
:1006FC004A83F10142834093780140937501409302
:04070C00720131CF76
:100710004F925F926F927F928F929F92AF92BF9211
:10072000CF92DF92EF92FF920F931F93CF93DF93BD
:10073000FC01EB0169017A018081823009F45AC021
:10074000833021F0813009F093C078C08C819D8185
:10075000AE81BF8129013A01481A590A6A0A7B0A07
:100760008C84912CA12CB12C609164017091650155
:100770008091660190916701A50194010E947E0716
:10078000461657066806790608F472C0209164017F
:10079000309165014091660150916701AD85B0E0EF
:1007A0000E94DF07461657066806790638F082E091
:1007B0008083C886D986EA86FB865AC081818111EA
:1007C00057C06091640170916501809166019091BC
:1007D0006701A50194010E947E0746165706680628
:1007E000790608F445C082E08083C886D986EA8607
:1007F000FB863EC08091640190916501A0916601E5
:10080000B0916701488559856A857B859701860186
:10081000041B150B260B370B880F991FAA1FBB1F34
:10082000081719072A073B0718F181E080838283A4
:100830001182C882D982EA82FB821AC08091640147
:1008400090916501A0916601B0916701488159813D
:100850006A817B81C41AD50AE60AF70A880F991FB4
:10086000AA1FBB1FC816D906EA06FB0608F01282AB
:10087000DF91CF911F910F91FF90EF90DF90CF907C
:10088000BF90AF909F908F907F906F905F904F90B0
:020890000895C9
:10089200CF93DF93CDB7DEB769970FB6F894DEBF7B
:1008A2000FBECDBFE4E5F1E0428150E0638170E02C
:1008B200FE01319680E090E0AFE530C0809180018A
:1008C200811102C08FE501C088E58E8380E28F83AB
:1008D2006091600170916101809162019091630168
:1008E20020EA36E841E050E00E94360725E0AE01FA
:1008F200485F5F4F0E946D051D8620E230E23B8B10
:100902002A8B80E290E09D8B8C8B3F8B2E8B998F74
:10091200888F80918101811126C01EC09A01082E04
:1009220002C0359527950A94E2F720FF0EC09B017D
:10093200082E02C0359527950A94E2F720FD02C0E1
:1009420028E501C02A2F208301C0A0830196319699
:100952008530910519F7B2CF60E071E0CE01429681
:100962000E949D072CC0823081F018F4813031F052
:1009720026C08330B9F08430E1F021C064E071E038
:10098200CE0142960E949D071AC064E071E0CE013A
:1009920042960E949D0768E071E0CE0146960E9451
:1009A2009D070DC06CE071E0CE0142960E949D074A
:1009B20006C060E171E0CE0142960E949D076996F1
:1009C2000FB6F894DEBF0FBECDBFDF91CF91089571
:1009D2000F931F934B9904C081E0809380011BC049
:1009E200809180018823B9F00E94BB0700915C01CD
:1009F20010915D0120915E0130915F01DC01CB011C
:100A0200801B910BA20BB30B81319742A105B1055B
:100A120010F01092800180917F01882321F11092C1
:100A22007F0182E10E948E0780FD05C0E4E5F1E0CE
:100A320092819160928384FD05C0E4E5F1E08281B8
:100A42008260828383E10E948E0780FD05C0E4E517
:100A5200F1E092819460928384FD05C0E4E5F1E0C7
:100A6200828188608283189905C0E4E5F1E0828181
:100A7200806182838091560180FF07C09091570167
:100A820090FD03C091E09093710181FF07C09091A6
:100A9200570191FD03C091E090937D0182FF07C051
:100AA2009091570192FD03C091E09093770183FFEB
:100AB20007C09091570193FD03C091E090937A0192
:100AC20084FF07C08091570184FD03C081E08093B9
:080AD20074011F910F910895BA
:100ADA008F929F92AF92BF92EF92FF920F931F93C2
:100AEA00CF93DF937A01D22F222309F44CC0FA0163
:100AFA00CFEFC20F0C2F10E098012F5F3F4F420F2C
:100B0A00531F20E32193E417F507E1F7F701ED0FEF
:100B1A00F11D10826115710581059105B1F1CD179D
:100B2A00A0F50E0D1F1D2AE030E040E050E00E94C3
:100B3A003607605DF8016083622F732F842F952F2B
:100B4A00CC2319F10F2EFAE08F2E912CA12CB12C67
:100B5A00F02D10C087010C0F111DA50194010E94F0
:100B6A003607605DF8016083622F732F842F952FFB
:100B7A00CC2359F0C150611571058105910529F001
:100B8A00CD1740F302C0FA011082DF91CF911F9175
:100B9A000F91FF90EF90BF90AF909F908F90089524
:100BAA000F931F9380917001823039F0833041F0A6
:100BBA00813049F428E030E008C024E030E005C084
:100BCA0022E030E002C020E030E080917C018230F7
:100BDA0031F0833031F0813029F4206803C0206479
:100BEA0001C0206280917601823031F0833031F089
:100BFA00813029F4386003C0346001C032608091CA
:100C0A007901823031F0833031F0813029F4306853
:100C1A0003C0306401C0306280917301823039F0C0
:100C2A00833041F0813049F468E070E008C064E044
:100C3A0070E005C062E070E002C060E070E0CB01E5
:100C4A00A0E0B0E0BC0155274427C901A0E0B0E00C
:100C5A008C019D01042B152B262B372BC901B801BA
:060C6A001F910F91089597
:100C70000F920FB60F921F9211242F933F934F9311
:100C80005F936F937F938F939F93AF93BF93EF93F4
:100C9000FF932091780030917900A6EBB3E00E9499
:100CA000AC072FEF33E040E050E00E943607DA0156
:100CB000C901C296A11DB11D809364019093650185
:100CC000A0936601B0936701FF91EF91BF91AF913F
:100CD0009F918F917F916F915F914F913F912F9154
:0A0CE0001F900F900FBE0F901895A3
:100CEA00219A2098289A87B18E6087B988B1817F26
:100CFA0088B98AB1806F8AB953988BB18F708BB9D2
:100D0A005B9AEBE6F0E0808181608083E8E6F0E0C0
:100D1A0080818160808382E08093690081E08DBB5D
:100D2A008CBB80E480937C008FEE80937A001092D3
:040D3A007B0008959D
:100D3E0082309105A9F02CF4009751F0019761F0E3
:100D4E00089584309105A1F07CF00697A9F00895DE
:100D5E0081E080937101089581E080937D01089573
:100D6E0081E080937701089581E080937A01089560
:100D7E0081E080937401089581E08093800108954D
:100D8E0080E58CBD1DBC6AE68AE00E946C0761E1BD
:100D9E0080E00E946C0761E181E00E946C0760E0D8
:100DAE0088E00E946C0760E089E00E946C0761E1B8
:100DBE008CE00E946C0761E18DE00E946C0761E19E
:100DCE0084E00E946C0761E185E00E946C07089543
:100DDE0010927F0182E10E948E0780FD05C080E0A7
:100DEE0090E00E949F06089584FD05C081E090E08A
:100DFE000E949F06089583E10E948E0780FD05C024
:100E0E0082E090E00E949F06089584FD04C083E076
:080E1E0090E00E949F06089578
:100E26001F921FB61F9211248F939F93AF93BF9368
:100E36008091680190916901A0916A01B0916B015E
:100E46000196A11DB11D8093680190936901A0933D
:100E56006A01B0936B01BF91AF919F918F911F90E3
:060E66001FBE1F9018954D
:100E6C00A1E21A2EAA1BBB1BFD010DC0AA1FBB1FA2
:100E7C00EE1FFF1FA217B307E407F50720F0A21B14
:100E8C00B30BE40BF50B661F771F881F991F1A9481
:100E9C0069F760957095809590959B01AC01BD01AB
:040EAC00CF010895D5
:100EB000E1EBF0E010821092B2008CE78093B30077
:100EC00087E087BB82E0809370001092B600809329
:080ED000B00085E08083089565
:100ED800CF93DF93D82FC62F2A9880E40E94010869
:100EE8008D2F0E9401088C2F0E9401082A9ADF91F9
:040EF800CF910895F9
:100EFC00DB018F939F930E94DF07BF91AF91A29F5D
:100F0C00800D911DA39F900DB29F900D11240895FB
:100F1C00CF93C82F2A9881E40E9401088C2F0E943D
:0E0F2C00010880E00E9401082A9ACF910895E2
:100F3A00FB012081222341F031960196DC011197B1
:0E0F4A002C9321912111F9CFFC011082089502
:100F5800A29FB001B39FC001A39F700D811D1124F2
:0E0F6800911DB29F700D811D1124911D0895E1
:100F76002FB7F894609168017091690180916A01B8
:080F860090916B012FBF08954B
:100F8E0087B18F7087B988B1806388B981EC8093FF
:080F9E00B8001092B90008959B
:100FA600CF93C92F682F84E10E946C076C2F85E1CF
:080FB6000E946C07CF91089521
:100FBE000E94AC07A59F900DB49F900DA49F800D2D
:060FCE00911D112408959D
:100FD400EC010E9411080E941008CE010E94120820
:060FE400CE010E940E0880
:0C0FEA008F9381E080937F018F91189518
:0C0FF6008F9381E080937F018F9118950C
:0C1002008EBD0DB407FEFDCF8EB5089525
:0A100E0084B18C6284B9249808951F
:041018000C94000034
:04101C000E947400BA
:02102000089531
:0210220008952F
:0210240008952D
:10102600485A4400505254005057540052535400EA
:0410360044535400CB
:0F103A00000000000000000000000000020400A1
:0F10490000000000000000000000000002030093
:0F10580000000000000000000000000002040083
:0F10670000000000000000000000000004060070
:04107600E80300008B
:03107A0002000170
:03107D000200016D
:031080000200016A
:0310830002000167
:0310860002000164
:011089000165
:00000001FF
